:100000000C9476000C949E000C949E000C949E0020
:100010000C949E000C949E000C949E000C949E00E8
:100020000C949E000C949E000C949E000C949E00D8
:100030000C949E000C949E000C949E000C949E00C8
:100040000C948C020C949E000C94D1040C941F050B
:100050000C949E000C949E000C949E000C949E00A8
:100060000C949E000C949E0007634236B79BD8A761
:100070001A39685618AEBAAB558C1D3CB7CC5763CD
:10008000BD6DEDFD753EF6177231BF000000803F7B
:1000900000000000240027002A00000000002500C6
:1000A00028002B0000000000230026002900040483
:1000B0000404040404040202020202020303030310
:1000C00003030102040810204080010204081020EC
:1000D00001020408102000000007000201000003D4
:1000E000040600000000000000008B0611241FBE63
:1000F000CFEFD8E0DEBFCDBF11E0A0E0B1E0E6E693
:10010000F5E102C005900D92A231B107D9F711E0D7
:10011000A2E1B1E001C01D92A03FB107E1F710E0FC
:10012000CCEED0E004C02297FE010E94AD0ACA3E88
:10013000D107C9F70E94E1060C94B10A0C940000A3
:100140009C01883091056CF084B190E028503040DB
:10015000022E02C0959587950A94E2F7285F3F4FDB
:1001600008C08AB190E0022E02C0959587950A9446
:10017000E2F7817021F4822F61E00E94EA03089582
:100180009C01883091056CF084B190E0285030409B
:10019000022E02C0959587950A94E2F7285F3F4F9B
:1001A00008C08AB190E0022E02C0959587950A9406
:1001B000E2F7817021F0822F60E00E94EA03089547
:1001C0000F931F9300911301109114018EE00E9470
:1001D0006803000F111F0B5E1E4F26E632E0281B3E
:1001E000390BF80131832083809113019091140120
:1001F00001969093140180931301449724F0109278
:10020000140110921301E5E1F1E080E090E020811B
:10021000318137FF03C0309521953F4F820F931FE7
:10022000329621E0ED33F20791F764E170E00E942D
:10023000470ACB011F910F9108951F9310E0812F62
:1002400061E00E94EA03812F60E00E9429041F5FA1
:100250001E30A9F71F910895EF92FF920F931F93FD
:10026000CF93DF93C82FDD27C7FDD095D7FF21C0DF
:10027000C6FF17C0C5FF12C08E01159507950F70F8
:100280001070C8010E94A000C0FF03C0802F61E071
:1002900002C0802F60E00E94290429C080931201CF
:1002A00026C0D595C795CE018F7090700E94C00072
:1002B0001EC000911201112707FD10957801F594D9
:1002C000E7948FE0E822FF24C7010E94A000CF77C7
:1002D000D0701695102F0027179507951070C00F36
:1002E000D11F8E2DBE010E948A0310921201DF9150
:1002F000CF911F910F91FF90EF900895AF92BF9211
:10030000CF92DF92EF92FF920F931F9380E10E94B2
:100310006803AA2797FDA095BA2FBC01CD010E94C2
:10032000940820E030E040E85AE30E94B50920E05C
:1003300030E040E450E40E94B5090E94350800D046
:1003400000D00DB71EB70F5F1F4F20E030E048E42C
:1003500052E40E94B5090E9461082FEF33E040E0AB
:1003600050E0F801208331834283538322E330E05D
:1003700040E050E0E9EEEE2EE3E0FE2E012D112DDF
:10038000AA24BB2465010E941A070E9494080E94B7
:1003900061080F900F900F900F90CB011F910F915C
:1003A000FF90EF90DF90CF90BF90AF9008950F93A4
:1003B0001F930EEC11E0C80140E056E960E070E0E8
:1003C0000E945A05C8010E943B060E941D011F9110
:1003D0000F9108950F931F938C010E947D04B80123
:1003E0006F707070019731F4660F771F660F771F7B
:1003F000616805C0660F771F660F771F60688EEC17
:1004000091E00E944B061F910F9108950F931F9347
:10041000CF93DF93EC01009719F40E94E00008C02D
:100420008230910519F40E947E0102C00E94680387
:100430008C01C770D07083E0CC0FDD1F8A95E1F787
:10044000C06CB801660F672F661F770B67707070FE
:100450006C2B7D2B8EEC91E00E944B060F77107079
:100460008EEC91E0602F0E944B06DF91CF911F919F
:100470000F910895CF93DF93C0E0D0E0CE010E94AA
:1004800006022196C630D105C9F7C0E0D0E0C830D9
:10049000D1055CF084B190E028970C2E02C09595B0
:1004A00087950A94E2F7289608C08AB190E00C2E4E
:1004B00002C0959587950A94E2F7817019F4CE01F0
:1004C0000E94EA012196CE30D10509F7DF91CF9144
:1004D00008950DC08EEC91E00E94E10518161906F2
:1004E00034F48EEC91E00E9412060E942C018EECF6
:1004F00091E00E94E105892B69F76FE070E080E0F0
:1005000090E00E94D4020E943A026AE070E080E02B
:1005100090E00E94D40208951F920F920FB60F929E
:1005200011242F933F938F939F93AF93BF93809109
:10053000410190914201A0914301B0914401309159
:1005400045010196A11DB11D232F2D5F2D3720F0F0
:100550002D570196A11DB11D2093450180934101A6
:1005600090934201A0934301B093440180913D01D7
:1005700090913E01A0913F01B09140010196A11DD3
:10058000B11D80933D0190933E01A0933F01B09334
:100590004001BF91AF919F918F913F912F910F900B
:1005A0000FBE0F901F9018959B01AC017FB7F89478
:1005B00080913D0190913E01A0913F01B091400199
:1005C00066B5A89B05C06F3F19F00196A11DB11D2E
:1005D0007FBFBA2FA92F982F8827860F911DA11DA5
:1005E000B11D62E0880F991FAA1FBB1F6A95D1F742
:1005F000BC012DC0FFB7F89480913D0190913E0160
:10060000A0913F01B0914001E6B5A89B05C0EF3F26
:1006100019F00196A11DB11DFFBFBA2FA92F982F68
:1006200088278E0F911DA11DB11DE2E0880F991F33
:10063000AA1FBB1FEA95D1F7861B970B885E9340D4
:10064000C8F2215030404040504068517C4F211545
:1006500031054105510571F60895789484B582609D
:1006600084BD84B5816084BD85B5826085BD85B556
:10067000816085BDEEE6F0E0808181608083E1E805
:10068000F0E010828081826080838081816080833D
:10069000E0E8F0E0808181608083E1EBF0E0808140
:1006A00084608083E0EBF0E0808181608083EAE712
:1006B000F0E080818460808380818260808380819B
:1006C000816080838081806880831092C10008955A
:1006D000982F8E3008F09E5097708091000182957F
:1006E000880F880F807C892B80937C0080917A0012
:1006F000806480937A0080917A0086FDFCCF2091FF
:10070000780040917900942F80E030E0282B392B3D
:10071000C90108951F93CF93DF93182FEB0161E078
:100720000E94EA03209709F44AC0CF3FD10509F49B
:1007300049C0E12FF0E0EA52FF4F84918330C1F0CD
:10074000843028F4813051F08230B1F50CC086300D
:1007500019F1873049F1843079F514C084B5806887
:1007600084BDC7BD33C084B5806284BDC8BD2EC002
:1007700080918000806880938000D0938900C0932E
:10078000880024C080918000806280938000D09394
:100790008B00C0938A001AC08091B000806880935B
:1007A000B000C093B30012C08091B000806280930B
:1007B000B000C093B4000AC0C038D1051CF4812F2A
:1007C00060E002C0812F61E00E942904DF91CF9197
:1007D0001F910895CF93DF93482F50E0CA018E53A5
:1007E0009F4FFC01349142555F4FFA018491882359
:1007F00069F190E0880F991FFC01E057FF4FA59128
:10080000B491FC01E656FF4FC591D491662351F493
:100810002FB7F8948C91932F909589238C9388818E
:1008200089230BC0623061F42FB7F8948C91932F19
:10083000909589238C938881832B88832FBF06C052
:100840009FB7F8948C91832B8C939FBFDF91CF91AE
:100850000895482F50E0CA018A529F4FFC0124910D
:10086000CA018E539F4FFC01949142555F4FFA018C
:100870003491332309F440C0222351F1233071F025
:10088000243028F42130A1F0223011F514C0263094
:10089000B1F02730C1F02430D9F404C08091800039
:1008A0008F7703C0809180008F7D8093800010C07F
:1008B00084B58F7702C084B58F7D84BD09C08091D7
:1008C000B0008F7703C08091B0008F7D8093B0001F
:1008D000E32FF0E0EE0FFF1FE656FF4FA591B49116
:1008E0002FB7F894662321F48C919095892302C048
:1008F0008C91892B8C932FBF0895682F70E0CB01CA
:100900008A529F4FFC012491CB018E539F4FFC01D3
:10091000449162557F4FFB019491992319F420E093
:1009200030E03CC0222351F1233071F0243028F410
:100930002130A1F0223011F514C02630B1F027305B
:10094000C1F02430D9F404C0809180008F7703C0B7
:10095000809180008F7D8093800010C084B58F7758
:1009600002C084B58F7D84BD09C08091B0008F77AF
:1009700003C08091B0008F7D8093B000892F90E0FC
:10098000880F991F8C559F4FFC01A591B4918C91B4
:1009900020E030E0842311F021E030E0C901089527
:1009A00008951F920F920FB60F9211242F933F9329
:1009B0004F938F939F93EF93FF938091C00082FD9D
:1009C0001DC04091C60020918601309187012F5FA4
:1009D0003F4F2F73307080918801909189012817C3
:1009E000390771F0E0918601F0918701EA5BFE4FD3
:1009F0004083309387012093860102C08091C60016
:100A0000FF91EF919F918F914F913F912F910F9077
:100A10000FBE0F901F901895E091DA01F091DB0165
:100A2000E05CFF4F8191919120813181821B930B7A
:100A30008F739070892B11F00E94D00408951F923B
:100A40000F920FB60F9211242F933F938F939F9382
:100A5000EF93FF932091CA013091CB018091CC019B
:100A60009091CD012817390731F48091C1008F7D15
:100A70008093C10014C0E091CC01F091CD01E65704
:100A8000FE4F20818091CC019091CD0101968F7312
:100A900090709093CD018093CC012093C600FF917C
:100AA000EF919F918F913F912F910F900FBE0F90DB
:100AB0001F901895AF92BF92DF92EF92FF920F9323
:100AC0001F93CF93DF93EC017A018B01DD2440303B
:100AD00081EE580780E0680780E0780711F0DD2498
:100AE000D39491E0A92EB12CEC89FD89DD2069F029
:100AF000C50108A002C0880F991F0A94E2F78083FD
:100B000060E079E08DE390E005C0108260E874E871
:100B10008EE190E0A80197010E945A0A21503040CE
:100B200040405040569547953795279580E12030B5
:100B3000380720F0DD2011F0DD24D6CFE889F989CF
:100B40003083EA89FB89208319A2EE89FF894081DD
:100B500021E030E0C9010C8C02C0880F991F0A9473
:100B6000E2F7482B4083EE89FF894081C9010D8C53
:100B700002C0880F991F0A94E2F7482B4083EE8940
:100B8000FF894081C9010E8C02C0880F991F0A9409
:100B9000E2F7482B4083EE89FF8980810F8C02C0E9
:100BA000220F331F0A94E2F7209528232083DF9138
:100BB000CF911F910F91FF90EF90DF90BF90AF907A
:100BC0000895DC011C96ED91FC911D97E05CFF4FB0
:100BD0002191319180819181281B390B2F733070C5
:100BE000C9010895DC011C96ED91FC911D97E05C14
:100BF000FF4F20813181E054F040DF01AE5BBF4FF9
:100C00008D919C9111972817390719F42FEF3FEF19
:100C100007C08D919C91E80FF91F8081282F30E04B
:100C2000C9010895DC011C96ED91FC911D97E05CD3
:100C3000FF4F20813181E054F040DF01AE5BBF4FB8
:100C40008D919C9111972817390719F42FEF3FEFD9
:100C500010C08D919C911197E80FF91F20818D9103
:100C60009C91119701968F73907011969C938E931F
:100C700030E0C9010895DC0191968C919197882309
:100C800039F05496ED91FC915597808186FFF9CF0C
:100C900091961C920895CF93DF93EC01EE85FF852A
:100CA000E05CFF4F20813181E054F0402F5F3F4FE7
:100CB0002F733070DF01AE5BBF4F8D919C91119708
:100CC00028173907D1F3E05CFF4F80819181E05410
:100CD000F040E80FF91F6083EE85FF85E05CFF4F71
:100CE00031832083EE89FF89208181E090E00F8CA1
:100CF00002C0880F991F0A94E2F7282B208381E015
:100D000089A3EC89FD8980818064808381E090E003
:100D1000DF91CF9108951092D1011092D00188EE09
:100D200093E0A0E0B0E08093D2019093D301A09330
:100D3000D401B093D50185E091E09093CF018093E9
:100D4000CE0186E491E09093DB018093DA018AE89A
:100D500091E09093DD018093DC0185EC90E090932D
:100D6000DF018093DE0184EC90E09093E1018093B9
:100D7000E00180EC90E09093E3018093E20181EC4C
:100D800090E09093E5018093E40182EC90E09093F1
:100D9000E7018093E60186EC90E09093E90180936F
:100DA000E80184E08093EA0183E08093EB0187E02F
:100DB0008093EC0185E08093ED0181E08093EE016A
:100DC0000895CF93DF930E942D030E94D701CCE0BA
:100DD000D5E00E9469022097E1F30E940C05F9CF4B
:100DE000CF92DF92EF92FF920F931F93CF93DF93F7
:100DF0007C016B018A01C0E0D0E00FC0D6016D918B
:100E00006D01D701ED91FC910190F081E02DC701BA
:100E10000995C80FD91F015010400115110571F730
:100E2000CE01DF91CF911F910F91FF90EF90DF9056
:100E3000CF9008952F923F924F925F926F927F9240
:100E40008F929F92AF92BF92CF92DF92EF92FF92DA
:100E50000F931F93DF93CF93CDB7DEB73B014C01C8
:100E600019012A016D897E898F89988D6A197B09FC
:100E70008C099D09621A730A840A950AA4019301D8
:100E80000E94280AE218F30804091509A80197012D
:100E90000E947C0A2A0D3B1D4C1D5D1DB901CA0133
:100EA000CF91DF911F910F91FF90EF90DF90CF9046
:100EB000BF90AF909F908F907F906F905F904F907A
:100EC0003F902F9008955058BB27AA270ED0A3C15A
:100ED00094D130F099D120F031F49F3F11F41EF4F9
:100EE00064C10EF4E095E7FB5AC1E92FA5D180F368
:100EF000BA17620773078407950718F071F49EF517
:100F0000BDC10EF4E0950B2EBA2FA02D0B01B90137
:100F100090010C01CA01A0011124FF27591B99F06F
:100F2000593F50F4503E68F11A16F040A22F232F7B
:100F3000342F4427585FF3CF469537952795A795CB
:100F4000F0405395C9F77EF41F16BA0B620B730B72
:100F5000840BBAF09150A1F0FF0FBB1F661F771FE3
:100F6000881FC2F70EC0BA0F621F731F841F48F498
:100F7000879577956795B795F7959E3F08F0B3CF1E
:100F80009395880F08F09927EE0F97958795089508
:100F90000CD041C139D140F030D130F021F45F3F65
:100FA00019F0FDC051116BC100C146D198F39923CE
:100FB000C9F35523B1F3951B550BBB27AA2762171D
:100FC0007307840738F09F5F5F4F220F331F441F62
:100FD000AA1FA9F333D00E2E3AF0E0E830D091509A
:100FE0005040E695001CCAF729D0FE2F27D0660F87
:100FF000771F881FBB1F261737074807AB07B0E8C6
:1010000009F0BB0B802DBF01FF2793585F4F2AF0DB
:101010009E3F510568F0C3C032C15F3FECF3983E7C
:10102000DCF3869577956795B795F7959F5FC9F738
:10103000880F911D9695879597F90895E1E0660FC1
:10104000771F881FBB1F621773078407BA0720F03A
:10105000621B730B840BBA0BEE1F88F7E0950895A3
:1010600019F40EF09CC00AC1A0C0EED0C8F39638A7
:10107000C0F707F80F92E8942BE33AEA48EB5FE7F2
:1010800082D10F920F920F924DB75EB70F923AD165
:10109000E8E6F0E08DD04F915F91EF91FF91E595FB
:1010A000EE1FFF1F49F0FE57E0684427EE0F441F74
:1010B000FA95E1F74195550BF1D00F9007FEE5C089
:1010C000089504D06894B111DAC00895BDD088F0B5
:1010D0009F5790F0B92F9927B751A0F0D1F0660F24
:1010E000771F881F991F1AF0BA95C9F712C0B1303F
:1010F00081F0C4D0B1E00895C1C0672F782F882750
:10110000B85F39F0B93FCCF3869577956795B3957D
:10111000D9F73EF490958095709561957F4F8F4FEC
:101120009F4F0895E89409C097FB3EF490958095F1
:10113000709561957F4F8F4F9F4F9923A9F0F92F9D
:1011400096E9BB279395F695879577956795B7951B
:10115000F111F8CFFAF4BB0F11F460FF1BC06F5F01
:101160007F4F8F4F9F4F16C0882311F096E911C013
:10117000772321F09EE8872F762F05C0662371F034
:1011800096E8862F70E060E02AF09A95660F771F48
:10119000881FDAF7880F9695879597F9089597F93C
:1011A0009F6780E870E060E008959FEF80EC08950D
:1011B000DF93CF931F930F93FF92EF92DF927B0108
:1011C0008C01689405C0DA2EEF01DBD0FE01E894B3
:1011D000A5912591359145915591AEF3EF0185DEAD
:1011E000FE019701A801DA9479F7DF90EF90FF9064
:1011F0000F911F91CF91DF91089500240A94161644
:10120000170618060906089500240A9412161306F4
:10121000140605060895092E0394000C11F4882382
:1012200052F0BB0F40F4BF2B11F460FF04C06F5F9E
:101230007F4F8F4F9F4F089557FD9058440F551F74
:1012400059F05F3F71F04795880F97FB991F61F048
:101250009F3F79F087950895121613061406551FBF
:10126000F2CF4695F1DF08C0161617061806991F2B
:10127000F1CF86957105610508940895E894BB2720
:1012800066277727CB0197F908959B01AC0160E0B1
:1012900070E080E89FE37CCE82CFCAC0D5DFE8F360
:1012A0009923D9F3940F511DBBF39150504094F002
:1012B00059F0882332F0660F771F881F91505040F5
:1012C000C1F79E3F510544F7880F911D969587956C
:1012D00097F908955F3FACF0983E9CF0BB27869548
:1012E00077956795B79508F4B1609395C1F7BB0FF3
:1012F00058F711F460FFE8CF6F5F7F4F8F4F9F4F1C
:10130000E3CFBDCFFA01DC01AA0FBB1F9B01AC01EB
:10131000BF5728F422273327442750781FC0B751DE
:1013200088F4AB2F0024469537952795011CA3958B
:10133000D2F3002069F0220F331F441FB395DAF374
:101340000DD0C1CD61307105A0E88A07B94630F4EF
:101350009B01AC016627772788279078309621F08B
:10136000208331834283538308950BD054CF45DFCC
:1013700028F04ADF18F0952309F011CF16CF112479
:101380007ECF5ADFA0F3959FD1F3950F50E0551F04
:10139000629FF001729FBB27F00DB11D639FAA27CA
:1013A000F00DB11DAA1F649F6627B00DA11D661F19
:1013B000829F2227B00DA11D621F739FB00DA11D3A
:1013C000621F839FA00D611D221F749F3327A00DF4
:1013D000611D231F849F600D211D822F762F6A2F90
:1013E00011249F5750408AF0E1F088234AF0EE0F15
:1013F000FF1FBB1F661F771F881F91505040A9F722
:101400009E3F510570F0CBCE3ACF5F3FECF3983E54
:10141000DCF3869577956795B795F795E7959F5F88
:10142000C1F7FE2B880F911D9695879597F9089522
:101430009F3F49F0915028F4869577956795B79529
:101440009F5F80389F4F880F9695879597F90895ED
:10145000629FD001739FF001829FE00DF11D649F98
:10146000E00DF11D929FF00D839FF00D749FF00D24
:10147000659FF00D9927729FB00DE11DF91F639FC5
:10148000B00DE11DF91FBD01CF011124089597FB97
:10149000092E07260AD077FD04D049D006D00020B7
:1014A0001AF4709561957F4F0895F6F790958195A0
:1014B0009F4F0895A1E21A2EAA1BBB1BFD010DC070
:1014C000AA1FBB1FEE1FFF1FA217B307E407F507F4
:1014D00020F0A21BB30BE40BF50B661F771F881FD0
:1014E000991F1A9469F760957095809590959B0166
:1014F000AC01BD01CF01089597FB092E05260ED042
:1015000057FD04D0D7DF0AD0001C38F45095409521
:10151000309521953F4F4F4F5F4F0895F6F79095C7
:101520008095709561957F4F8F4F9F4F0895AA1BAF
:10153000BB1B51E107C0AA1FBB1FA617B70710F0BE
:10154000A61BB70B881F991F5A95A9F780959095F0
:10155000BC01CD010895EE0FFF1F0590F491E02D21
:061560000994F894FFCF8E
:1015660001000000004B06F006E1051206F2053BFD
:0215760006006D
:00000001FF
