:100000000C9476000C949E000C949E000C949E0020
:100010000C949E000C949E000C949E000C949E00E8
:100020000C949E000C949E000C949E000C949E00D8
:100030000C949E000C949E000C949E000C949E00C8
:100040000C945A020C949E000C94AC050C94DE05A2
:100050000C949E000C949E000C949E000C949E00A8
:100060000C949E000C949E0007634236B79BD8A761
:100070001A39685618AEBAAB558C1D3CB7CC5763CD
:10008000BD6DEDFD753EF6177231BF000000803F7B
:100090000000000800020100000304070000000047
:1000A0000000000001020408102040800102040842
:1000B00010200102040810200404040404040404B1
:1000C0000202020202020303030303030000000012
:1000D00023002600290000000000250028002B0036
:1000E00000000000240027002A000E0611241FBE75
:1000F000CFEFD8E0DEBFCDBF11E0A0E0B1E0EEE58C
:10010000F4E102C005900D92A631B107D9F721E0C4
:10011000A6E1B1E001C01D92A73EB207E1F710E0F1
:10012000CCEED0E004C02297FE010E941A0ACA3E1B
:10013000D107C9F70E9452060C942D0A0C940000B6
:10014000DC01ED91FC910190F081E02D0994CF93B9
:10015000C0E061E08C2F0E94CF0360E08C2F0E94F2
:100160000804CF5FCE30A9F7CF910895AF92BF9228
:10017000CF92DF92EF92FF920F931F9382E00E9443
:100180002A03BC01882777FD8095982F0E940208DA
:1001900020E030E040E85AE30E94230920E030E00C
:1001A00040E450E40E9423090E94A30720E030E0CD
:1001B00048E452E40E9423090E94CF071F921F9235
:1001C00023E02F932FEF2F93A12CB12C650119EE73
:1001D000E12E13E0F12E00E010E022E330E040E0F9
:1001E00050E00E9489060E9402080E94CF070F90EB
:1001F0000F900F900F90CB011F910F91FF90EF90F8
:10020000DF90CF90BF90AF900895CF93DF93C091D0
:100210003E01D0913F0180E00E942A03FE01EE0FD3
:10022000FF1FEA5EFE4F26E632E0281B390B3183C2
:10023000208380913E0190913F0101968431910588
:100240002CF490933F0180933E0104C010923F0133
:1002500010923E01E6E1F1E080E090E021913191E1
:1002600037FF03C0319521953109820F931F21E09B
:10027000EE33F20799F764E170E00E94A409CB0124
:10028000DF91CF9108950F931F93CF93DF93EC01EC
:10029000009719F40E94050108C08230910519F4F5
:1002A0000E94B60002C00E942A038C01BE01677042
:1002B000772743E0660F771F4A95E1F7606C880F58
:1002C000892F881F990B87709927682B792B8AE4CF
:1002D00091E00E94A000B8016F7777278AE491E04F
:1002E000DF91CF911F910F910C94A000CF93DF93DA
:1002F000EC010E943E04CF70DD27BE01660F771F20
:10030000660F771F019711F4616801C060688AE485
:1003100091E0DF91CF910C94A0008830910524F0FA
:1003200024B130E0089702C02AB130E002C0359510
:1003300027958A95E2F7822F81700895CF93DF93F6
:10034000C0E0D0E0CE010E9443012196C630D10525
:10035000C9F7C0E0D0E0CE010E948D01811103C039
:10036000CE010E9476012196CE30D105A1F7DF9112
:10037000CF910895CF93C82F0E948D01882329F033
:1003800060E08C2FCF910C94CF03CF910895CF9341
:10039000C82F0E948D01811105C061E08C2FCF9183
:1003A0000C94CF03CF910895FF920F931F93CF9397
:1003B000DF93F82EC82FDD27C7FDD095D7FF27C0C4
:1003C00086FF19C085FF14C0D595C795CF70DD276E
:1003D000CE010E94C701F0FE02C061E001C060E0F2
:1003E0008C2FDF91CF911F910F91FF900C940804F7
:1003F0008093400128C0CE01959587958F709927ED
:10040000DF91CF911F910F91FF900C94BA01C09191
:100410004001DD27C7FDD0958E01159507950F701A
:100420001127D695DC2FCC27D795C795DD278F7759
:10043000C80FD11DC8010E94C701BE01802F0E94B4
:10044000470310924001DF91CF911F910F91FF90D0
:10045000089526E040E855E260E070E08AE491E02B
:100460000E944A058AE491E00E94C3040C94A7000C
:100470008AE491E00E946704892B71F08AE491E09C
:100480000E946704181619069CF78AE491E00E94FE
:1004900080040E94D401ECCF6AE070E080E090E03C
:1004A0000E94C7020E949E016AE070E080E090E036
:1004B0000C94C7021F920F920FB60F9211242F9324
:1004C0003F938F939F93AF93BF93809142019091FD
:1004D0004301A0914401B09145013091410123E0D5
:1004E000230F2D3720F40196A11DB11D05C026E86C
:1004F000230F0296A11DB11D20934101809342015B
:1005000090934301A0934401B0934501809146012B
:1005100090914701A0914801B09149010196A11D18
:10052000B11D8093460190934701A0934801B09379
:100530004901BF91AF919F918F913F912F910F9062
:100540000FBE0F901F9018953FB7F8948091460109
:1005500090914701A0914801B091490126B5A89B0F
:1005600005C02F3F19F00196A11DB11D3FBF6627A1
:10057000782F892F9A2F620F711D811D911D42E0E6
:10058000660F771F881F991F4A95D1F70895CF925C
:10059000DF92EF92FF92CF93DF936B017C010E9479
:1005A000A402EB01C114D104E104F10489F00E941A
:1005B000D0060E94A4026C1B7D0B683E734090F332
:1005C00081E0C81AD108E108F108C851DC4FEACF30
:1005D000DF91CF91FF90EF90DF90CF9008957894C6
:1005E00084B5826084BD84B5816084BD85B5826038
:1005F00085BD85B5816085BDEEE6F0E080818160D6
:100600008083E1E8F0E010828081826080838081D5
:1006100081608083E0E8F0E0808181608083E1EBAD
:10062000F0E0808184608083E0EBF0E08081816095
:100630008083EAE7F0E0808184608083808182604B
:100640008083808181608083808180688083109234
:10065000C10008958E3008F08E50877020910401FB
:1006600090E4299F90011124822B80937C0080913B
:100670007A00806480937A0080917A0086FDFCCFB6
:10068000809178002091790090E0922B08951F933B
:10069000CF93DF93182FEB0161E00E94CF032097E7
:1006A00011F460E004C0CF3FD10539F461E0812F3F
:1006B000DF91CF911F910C940804E12FF0E0E057F7
:1006C000FF4FE491E330F9F048F4E130B9F0E23063
:1006D000A1F584B5806284BDC8BD34C0E730E9F0BF
:1006E000E83019F1E43049F5809180008062809310
:1006F0008000D0938B00C0938A0024C084B58068AA
:1007000084BDC7BD1FC08091800080688093800039
:10071000D0938900C093880015C08091B000806894
:100720008093B000C093B3000DC08091B000806290
:100730008093B000C093B40005C0C038D1050CF060
:10074000B5CFAFCFDF91CF911F910895833081F066
:1007500028F4813099F08230A1F008958730A9F013
:100760008830B9F08430D1F4809180008F7D03C04F
:10077000809180008F7780938000089584B58F7773
:1007800002C084B58F7D84BD08958091B0008F77BD
:1007900003C08091B0008F7D8093B0000895CF9307
:1007A000DF9390E0FC01EC55FF4F2491FC01E854ED
:1007B000FF4F8491882349F190E0880F991FFC0135
:1007C000E052FF4FA591B4918A529F4FFC01C59111
:1007D000D4919FB7611108C0F8948C912095822321
:1007E0008C93888182230AC0623051F4F8948C91F2
:1007F000322F309583238C938881822B888304C089
:10080000F8948C91822B8C939FBFDF91CF910895A8
:100810000F931F93CF93DF931F92CDB7DEB7282F8F
:1008200030E0F901E057FF4F8491F901EC55FF4F9B
:100830001491F901E854FF4F04910023C9F0882373
:1008400021F069830E94A6036981E02FF0E0EE0F9A
:10085000FF1FEA52FF4FA591B4919FB7F8948C9176
:10086000611103C01095812301C0812B8C939FBF20
:100870000F90DF91CF911F910F910895CF93DF9348
:10088000282F30E0F901E057FF4F8491F901EC5532
:10089000FF4FD491F901E854FF4FC491CC2391F05C
:1008A00081110E94A603EC2FF0E0EE0FFF1FE4532E
:1008B000FF4FA591B4912C912D2381E090E021F47C
:1008C00080E002C080E090E0DF91CF910895FC01CC
:1008D000818D228D90E0805C9F4F821B91098F73E8
:1008E00099270895FC01918D828D981731F0828DA2
:1008F000E80FF11D858D90E008958FEF9FEF08952B
:10090000FC01918D828D981761F0828DDF01A80F17
:10091000B11D5D968C91928D9F5F9F73928F90E039
:1009200008958FEF9FEF089584E096E0892B49F0BA
:1009300080E090E0892B29F00E94040681110C943C
:1009400000000895FC01848DDF01A80FB11DA35A9A
:10095000BF4F2C91848D90E001968F739927848FDF
:10096000A689B7892C93A089B1898C9180648C93D6
:10097000938D848D981306C00288F389E02D8081C1
:100980008F7D80830895CF93DF93EC01888D88233A
:10099000C9F0EA89FB89808185FD05C0A889B989EC
:1009A0008C9186FD0FC00FB607FCF5CF808185FFC7
:1009B000F2CFA889B9898C9185FFEDCFCE010E9435
:1009C000A204E7CFDF91CF910895CF92DF92FF92FB
:1009D0000F931F93CF93DF931F92CDB7DEB76C01B8
:1009E000DC015B969C915B975C968C915C9798136D
:1009F00007C05096ED91FC915197808185FD32C0E2
:100A0000F601038D10E00F5F1F4F0F731127F02EBB
:100A1000F601848DF81211C00FB607FCF9CFD6018C
:100A20005096ED91FC915197808185FFF1CFC601E1
:100A300069830E94A2046981EBCF838DE80FF11DC9
:100A4000E35AFF4F6083D6015B960C935B975296F7
:100A5000ED91FC91539780818062808381E058966C
:100A60008C930DC0D6015696ED91FC9157976083FB
:100A70005096ED91FC91519780818064808381E054
:100A800090E00F90DF91CF911F910F91FF90DF9039
:100A9000CF900895BF92CF92DF92EF92FF92CF93C3
:100AA000DF93EC016A017B01B22EE889F98982E0CB
:100AB0008083411581EE580761057105A1F060E062
:100AC00079E08DE390E0A70196010E94B8092150DA
:100AD00031094109510956954795379527952115B3
:100AE00080E1380798F0E889F989108260E874E8B5
:100AF0008EE190E0A70196010E94B80921503109CA
:100B0000410951095695479537952795EC85FD85FF
:100B10003083EE85FF852083188EEC89FD89B082B5
:100B2000EA89FB89808180618083EA89FB898081F1
:100B300088608083EA89FB89808180688083EA8974
:100B4000FB8980818F7D8083DF91CF91FF90EF9033
:100B5000DF90CF90BF9008951F920F920FB60F9223
:100B600011242F938F939F93EF93FF93E0915A015A
:100B7000F0915B018081E0916001F091610182FD63
:100B800012C09081809163018F5F8F732091640107
:100B9000821751F0E0916301F0E0E65BFE4F958F24
:100BA0008093630101C08081FF91EF919F918F91AC
:100BB0002F910F900FBE0F901F9018951F920F92BC
:100BC0000FB60F9211242F933F934F935F936F9320
:100BD0007F938F939F93AF93BF93EF93FF938AE499
:100BE00091E00E94A204FF91EF91BF91AF919F917C
:100BF0008F917F916F915F914F913F912F910F90C6
:100C00000FBE0F901F9018958AE491E00E94670430
:100C100021E0892B09F420E0822F089510924D01E4
:100C200010924C0188EE93E0A0E0B0E080934E017A
:100C300090934F01A0935001B093510189E091E04E
:100C400090934B0180934A0185EC90E0909357017B
:100C50008093560184EC90E0909359018093580161
:100C600080EC90E090935B0180935A0181EC90E0DE
:100C700090935D0180935C0182EC90E090935F0122
:100C800080935E0186EC90E0909361018093600117
:100C90001092630110926401109265011092660136
:100CA000089508950E94EF020E9451060E942902B1
:100CB000C4E9D4E00E9438022097E1F30E94940432
:100CC000F9CFCF92DF92EF92FF920F931F93CF93C2
:100CD000DF936C017A01EB01E60EF71E00E010E0F5
:100CE000CE15DF0561F06991D601ED91FC9101907F
:100CF000F081E02DC6010995080F191FF1CFC80139
:100D0000DF91CF911F910F91FF90EF90DF90CF90E7
:100D100008954F925F926F927F92AF92BF92CF925F
:100D2000DF92EF92FF920F931F93CF93DF93CDB794
:100D3000DEB729013A01621B730B840B950B2989DD
:100D40003A894B895C892A193B094C095D09298B31
:100D50003A8B4B8B5C8B9B01AC0169897A898B89BF
:100D60009C890E949409E418F50806091709A8014E
:100D700097010E94DA092A0D3B1D4C1D5D1DCA0119
:100D8000B901DF91CF911F910F91FF90EF90DF900C
:100D9000CF90BF90AF907F906F905F904F900895ED
:100DA00008955058BB27AA270ED0A3C194D130F084
:100DB00099D120F031F49F3F11F41EF464C10EF478
:100DC000E095E7FB5AC1E92FA5D180F3BA17620776
:100DD00073078407950718F071F49EF5BDC10EF4F2
:100DE000E0950B2EBA2FA02D0B01B90190010C013B
:100DF000CA01A0011124FF27591B99F0593F50F453
:100E0000503E68F11A16F040A22F232F342F4427AA
:100E1000585FF3CF469537952795A795F0405395A2
:100E2000C9F77EF41F16BA0B620B730B840BBAF072
:100E30009150A1F0FF0FBB1F661F771F881FC2F7DD
:100E40000EC0BA0F621F731F841F48F487957795F1
:100E50006795B795F7959E3F08F0B3CF9395880FA8
:100E600008F09927EE0F9795879508950CD041C10A
:100E700039D140F030D130F021F45F3F19F0FDC09E
:100E800051116BC100C146D198F39923C9F3552381
:100E9000B1F3951B550BBB27AA276217730784076D
:100EA00038F09F5F5F4F220F331F441FAA1FA9F323
:100EB00033D00E2E3AF0E0E830D091505040E69515
:100EC000001CCAF729D0FE2F27D0660F771F881F76
:100ED000BB1F261737074807AB07B0E809F0BB0B65
:100EE000802DBF01FF2793585F4F2AF09E3F510589
:100EF00068F0C3C032C15F3FECF3983EDCF38695E7
:100F000077956795B795F7959F5FC9F7880F911DFE
:100F10009695879597F90895E1E0660F771F881FEA
:100F2000BB1F621773078407BA0720F0621B730B9D
:100F3000840BBA0BEE1F88F7E095089519F40EF0B4
:100F40009CC00AC1A0C0EED0C8F39638C0F707F81D
:100F50000F92E8942BE33AEA48EB5FE782D10F92D5
:100F60000F920F924DB75EB70F923AD1E8E6F0E0DC
:100F70008DD04F915F91EF91FF91E595EE1FFF1F8F
:100F800049F0FE57E0684427EE0F441FFA95E1F759
:100F90004195550BF1D00F9007FEE5C0089504D0A0
:100FA0006894B111DAC00895BDD088F09F5790F0D1
:100FB000B92F9927B751A0F0D1F0660F771F881F7E
:100FC000991F1AF0BA95C9F712C0B13081F0C4D098
:100FD000B1E00895C1C0672F782F8827B85F39F036
:100FE000B93FCCF3869577956795B395D9F73EF4DD
:100FF00090958095709561957F4F8F4F9F4F089585
:10100000E89409C097FB3EF49095809570956195A2
:101010007F4F8F4F9F4F9923A9F0F92F96E9BB2758
:101020009395F695879577956795B795F111F8CFD4
:10103000FAF4BB0F11F460FF1BC06F5F7F4F8F4F3F
:101040009F4F16C0882311F096E911C0772321F035
:101050009EE8872F762F05C0662371F096E8862FCD
:1010600070E060E02AF09A95660F771F881FDAF724
:10107000880F9695879597F9089597F99F6780E867
:1010800070E060E008959FEF80EC0895DF93CF93C8
:101090001F930F93FF92EF92DF927B018C01689474
:1010A00005C0DA2EEF01DBD0FE01E894A591259171
:1010B000359145915591AEF3EF0185DEFE01970123
:1010C000A801DA9479F7DF90EF90FF900F911F91CC
:1010D000CF91DF91089500240A941616170618067A
:1010E0000906089500240A9412161306140605062C
:1010F0000895092E0394000C11F4882352F0BB0FBD
:1011000040F4BF2B11F460FF04C06F5F7F4F8F4F1F
:101110009F4F089557FD9058440F551F59F05F3F5A
:1011200071F04795880F97FB991F61F09F3F79F009
:1011300087950895121613061406551FF2CF46958B
:10114000F1DF08C0161617061806991FF1CF86950D
:101150007105610508940895E894BB2766277727F1
:10116000CB0197F908959B01AC0160E070E080E845
:101170009FE37CCE82CFCAC0D5DFE8F39923D9F3B1
:10118000940F511DBBF39150504094F059F08823B7
:1011900032F0660F771F881F91505040C1F79E3F75
:1011A000510544F7880F911D9695879597F90895F5
:1011B0005F3FACF0983E9CF0BB278695779567958E
:1011C000B79508F4B1609395C1F7BB0F58F711F4C8
:1011D00060FFE8CF6F5F7F4F8F4F9F4FE3CFBDCF53
:1011E000FA01DC01AA0FBB1F9B01AC01BF5728F419
:1011F00022273327442750781FC0B75188F4AB2FDC
:101200000024469537952795011CA395D2F300201D
:1012100069F0220F331F441FB395DAF30DD0C1CD0F
:1012200061307105A0E88A07B94630F49B01AC0132
:101230006627772788279078309621F0208331839E
:101240004283538308950BD054CF45DF28F04ADF03
:1012500018F0952309F011CF16CF11247ECF5ADF55
:10126000A0F3959FD1F3950F50E0551F629FF001B9
:10127000729FBB27F00DB11D639FAA27F00DB11D12
:10128000AA1F649F6627B00DA11D661F829F22279B
:10129000B00DA11D621F739FB00DA11D621F839F22
:1012A000A00D611D221F749F3327A00D611D231FF8
:1012B000849F600D211D822F762F6A2F11249F5746
:1012C00050408AF0E1F088234AF0EE0FFF1FBB1F69
:1012D000661F771F881F91505040A9F79E3F510508
:1012E00070F0CBCE3ACF5F3FECF3983EDCF38695BF
:1012F00077956795B795F795E7959F5FC1F7FE2BB3
:10130000880F911D9695879597F908959F3F31F025
:10131000915020F4879577956795B795880F911D23
:101320009695879597F90895DB018F939F930E9477
:10133000F909BF91AF91A29F800D911DA39F900DC0
:10134000B29F900D1124089597FB072E16F4009478
:1013500007D077FD09D00E94040A07FC05D03EF4AF
:10136000909581959F4F0895709561957F4F089551
:10137000A1E21A2EAA1BBB1BFD010DC0AA1FBB1F99
:10138000EE1FFF1FA217B307E407F50720F0A21B0B
:10139000B30BE40BF50B661F771F881F991F1A9478
:1013A00069F760957095809590959B01AC01BD01A2
:1013B000CF010895052E97FB1EF400940E94F109B9
:1013C00057FD07D00E94B80907FC03D04EF40C94D7
:1013D000F10950954095309521953F4F4F4F5F4F04
:1013E000089590958095709561957F4F8F4F9F4F91
:1013F00008950E941E0AA59F900DB49F900DA49F72
:10140000800D911D11240895AA1BBB1B51E107C03B
:10141000AA1FBB1FA617B70710F0A61BB70B881F84
:10142000991F5A95A9F780959095BC01CD01089513
:10143000EE0FFF1F0590F491E02D0994A29FB001DB
:10144000B39FC001A39F700D811D1124911DB29FF8
:0E145000700D811D1124911D0895F894FFCF99
:10145E00010000000100000000E504610667048041
:06146E00047204C3040037
:00000001FF
