:100000000C9462000C948A000C948A000C948A0070
:100010000C948A000C948A000C948A000C948A0038
:100020000C948A000C948A000C948A000C948A0028
:100030000C948A000C948A000C948A000C948A0018
:100040000C94DE010C948A000C9423040C9471042B
:100050000C948A000C948A000C948A000C948A00F8
:100060000C948A000C948A000000000024002700F1
:100070002A0000000000250028002B0000000000DE
:1000800023002600290004040404040404040202DA
:100090000202020203030303030301020408102007
:1000A0004080010204081020010204081020000012
:1000B0000007000201000003040600000000000029
:1000C0000000DD0511241FBECFEFD8E0DEBFCDBF9D
:1000D00011E0A0E0B1E0ECE2FDE002C005900D927D
:1000E000A231B107D9F711E0A2E1B1E001C01D9240
:1000F000A63CB107E1F710E0C4ECD0E004C02297C1
:10010000FE010E949006C23CD107C9F70E94330647
:100110000C9494060C9400009C01883091056CF0BE
:1001200084B190E028503040022E02C0959587950A
:100130000A94E2F7285F3F4F08C08AB190E0022E90
:1001400002C0959587950A94E2F7817021F4822F79
:1001500061E00E943C0308959C01883091056CF099
:1001600084B190E028503040022E02C095958795CA
:100170000A94E2F7285F3F4F08C08AB190E0022E50
:1001800002C0959587950A94E2F7817021F0822F3D
:1001900060E00E943C0308951F9310E0812F61E00E
:1001A0000E943C03812F60E00E947B031F5F1E3092
:1001B000A9F71F910895EF92FF920F931F93CF938A
:1001C000DF93C82FDD27C7FDD095D7FF21C0C6FF1D
:1001D00017C0C5FF12C08E01159507950F701070DE
:1001E000C8010E948C00C0FF03C0802F61E002C0E4
:1001F000802F60E00E947B0329C08093120126C0FB
:10020000D595C795CE018F7090700E94AC001EC02E
:1002100000911201112707FD10957801F594E794DC
:100220008FE0E822FF24C7010E948C00CF77D070B6
:100230001695102F0027179507951070C00FD11F26
:100240008E2DBE010E94DC0210921201DF91CF912F
:100250001F910F91FF90EF9008950F931F9304EA61
:1002600011E0C80140E056E960E070E00E94AC0493
:10027000C8010E948D050E94CC001F910F91089526
:100280000F931F938C010E94CF03B8016F707070A1
:10029000019731F4660F771F660F771F616805C0FD
:1002A000660F771F660F771F606884EA91E00E94EF
:1002B0009D051F910F910895CF92DF92EF92FF92CB
:1002C0000F931F938C010E94BA027C01A4EACA2EEC
:1002D000A1E0DA2E07701070F3E0000F111FFA95FD
:1002E000E1F7006CBC01660F672F661F770B677024
:1002F0007070602B712BC6010E949D058FE7E8226C
:10030000FF24C6016E2D0E949D051F910F91FF9045
:10031000EF90DF90CF900895CF93DF93C0E0D0E0CF
:10032000CE010E945C012196C630D105C9F7C0E01C
:10033000D0E0C830D1055CF084B190E028970C2E55
:1003400002C0959587950A94E2F7289608C08AB16D
:1003500090E00C2E02C0959587950A94E2F7817083
:1003600019F4CE010E9440012196CE30D10509F743
:10037000DF91CF9108950DC084EA91E00E9433058A
:100380001816190634F484EA91E00E9464050E946C
:10039000DB0084EA91E00E943305892B69F76FE066
:1003A00070E080E090E00E9426020E948C016AE0EA
:1003B00070E080E090E00E94260208951F920F9264
:1003C0000FB60F9211242F933F938F939F93AF9368
:1003D000BF938091170190911801A0911901B091DC
:1003E0001A0130911B010196A11DB11D232F2D5F14
:1003F0002D3720F02D570196A11DB11D20931B0113
:100400008093170190931801A0931901B0931A01DA
:100410008091130190911401A0911501B0911601E2
:100420000196A11DB11D8093130190931401A09317
:100430001501B0931601BF91AF919F918F913F919C
:100440002F910F900FBE0F901F9018959B01AC013C
:100450007FB7F8948091130190911401A091150138
:10046000B091160166B5A89B05C06F3F19F00196C3
:10047000A11DB11D7FBFBA2FA92F982F8827860FE6
:10048000911DA11DB11D62E0880F991FAA1FBB1FFE
:100490006A95D1F7BC012DC0FFB7F8948091130184
:1004A00090911401A0911501B0911601E6B5A89B99
:1004B00005C0EF3F19F00196A11DB11DFFBFBA2F76
:1004C000A92F982F88278E0F911DA11DB11DE2E045
:1004D000880F991FAA1FBB1FEA95D1F7861B970BA0
:1004E000885E9340C8F221503040404050406851EF
:1004F0007C4F211531054105510571F60895789419
:1005000084B5826084BD84B5816084BD85B5826018
:1005100085BD85B5816085BDEEE6F0E080818160B6
:100520008083E1E8F0E010828081826080838081B6
:1005300081608083E0E8F0E0808181608083E1EB8E
:10054000F0E0808184608083E0EBF0E08081816076
:100550008083EAE7F0E0808184608083808182602C
:100560008083808181608083808180688083109215
:10057000C1000895982F8E3008F09E50977080919A
:1005800000018295880F880F807C892B80937C00E6
:1005900080917A00806480937A0080917A0086FD51
:1005A000FCCF2091780040917900942F80E030E0DA
:1005B000282B392BC90108951F93CF93DF93182F50
:1005C000EB0161E00E943C03209709F44AC0CF3F51
:1005D000D10509F449C0E12FF0E0E255FF4F8491C5
:1005E0008330C1F0843028F4813051F08230B1F58D
:1005F0000CC0863019F1873049F1843079F514C088
:1006000084B5806884BDC7BD33C084B5806284BDB5
:10061000C8BD2EC080918000806880938000D093F8
:100620008900C093880024C08091800080628093FC
:100630008000D0938B00C0938A001AC08091B000D4
:1006400080688093B000C093B30012C08091B00066
:1006500080628093B000C093B4000AC0C038D10556
:100660001CF4812F60E002C0812F61E00E947B03B7
:10067000DF91CF911F910895CF93DF93482F50E0E2
:10068000CA0186569F4FFC0134914A575F4FFA01C9
:100690008491882369F190E0880F991FFC01E85943
:1006A000FF4FA591B491FC01EE58FF4FC591D49135
:1006B000662351F42FB7F8948C91932F909589234A
:1006C0008C93888189230BC0623061F42FB7F89432
:1006D0008C91932F909589238C938881832B888389
:1006E0002FBF06C09FB7F8948C91832B8C939FBF2C
:1006F000DF91CF910895482F50E0CA0182559F4F56
:10070000FC012491CA0186569F4FFC0194914A57DF
:100710005F4FFA013491332309F440C0222351F191
:10072000233071F0243028F42130A1F0223011F56B
:1007300014C02630B1F02730C1F02430D9F404C001
:10074000809180008F7703C0809180008F7D80939F
:10075000800010C084B58F7702C084B58F7D84BDC2
:1007600009C08091B0008F7703C08091B0008F7D69
:100770008093B000E32FF0E0EE0FFF1FEE58FF4F25
:10078000A591B4912FB7F894662321F48C9190959C
:10079000892302C08C91892B8C932FBF0895682FD9
:1007A00070E0CB0182559F4FFC012491CB0186560E
:1007B0009F4FFC0144916A577F4FFB01949199230D
:1007C00019F420E030E03CC0222351F1233071F0D5
:1007D000243028F42130A1F0223011F514C0263045
:1007E000B1F02730C1F02430D9F404C080918000EA
:1007F0008F7703C0809180008F7D8093800010C030
:1008000084B58F7702C084B58F7D84BD09C0809187
:10081000B0008F7703C08091B0008F7D8093B000CF
:10082000892F90E0880F991F84589F4FFC01A59154
:10083000B4918C9120E030E0842311F021E030E08D
:10084000C901089508951F920F920FB60F921124B7
:100850002F933F934F938F939F93EF93FF938091A9
:10086000C00082FD1DC04091C60020915C01309106
:100870005D012F5F3F4F2F73307080915E0190912B
:100880005F012817390771F0E0915C01F0915D017B
:10089000E45EFE4F408330935D0120935C0102C013
:1008A0008091C600FF91EF919F918F914F913F9161
:1008B0002F910F900FBE0F901F901895E091B001EF
:1008C000F091B101E05CFF4F8191919120813181E4
:1008D000821B930B8F739070892B11F00E9422045E
:1008E00008951F920F920FB60F9211242F933F93EA
:1008F0008F939F93EF93FF932091A0013091A101DB
:100900008091A2019091A3012817390731F48091B9
:10091000C1008F7D8093C10014C0E091A201F091CD
:10092000A301E05AFE4F20818091A2019091A30182
:1009300001968F7390709093A3018093A2012093EE
:10094000C600FF91EF919F918F913F912F910F9052
:100950000FBE0F901F901895AF92BF92DF92EF924B
:10096000FF920F931F93CF93DF93EC017A018B01DA
:10097000DD24403081EE580780E0680780E078078A
:1009800011F0DD24D39491E0A92EB12CEC89FD89DE
:10099000DD2069F0C50108A002C0880F991F0A94E4
:1009A000E2F7808360E079E08DE390E005C010829B
:1009B00060E874E88EE190E0A80197010E946C065F
:1009C00021503040404050405695479537952795E7
:1009D00080E12030380720F0DD2011F0DD24D6CF73
:1009E000E889F9893083EA89FB89208319A2EE8995
:1009F000FF89408121E030E0C9010C8C02C0880FE2
:100A0000991F0A94E2F7482B4083EE89FF894081C1
:100A1000C9010D8C02C0880F991F0A94E2F7482B78
:100A20004083EE89FF894081C9010E8C02C0880F86
:100A3000991F0A94E2F7482B4083EE89FF89808151
:100A40000F8C02C0220F331F0A94E2F7209528234F
:100A50002083DF91CF911F910F91FF90EF90DF9056
:100A6000BF90AF900895DC011C96ED91FC911D970D
:100A7000E05CFF4F2191319180819181281B390BDE
:100A80002F733070C9010895DC011C96ED91FC9123
:100A90001D97E05CFF4F20813181E054F040DF0181
:100AA000AE5BBF4F8D919C9111972817390719F4B0
:100AB0002FEF3FEF07C08D919C91E80FF91F8081C8
:100AC000282F30E0C9010895DC011C96ED91FC91BE
:100AD0001D97E05CFF4F20813181E054F040DF0141
:100AE000AE5BBF4F8D919C9111972817390719F470
:100AF0002FEF3FEF10C08D919C911197E80FF91FD8
:100B000020818D919C91119701968F739070119611
:100B10009C938E9330E0C9010895DC0191968C91ED
:100B20009197882339F05496ED91FC9155978081E7
:100B300086FFF9CF91961C920895CF93DF93EC0135
:100B4000EE85FF85E05CFF4F20813181E054F0406D
:100B50002F5F3F4F2F733070DF01AE5BBF4F8D9122
:100B60009C91119728173907D1F3E05CFF4F8081E2
:100B70009181E054F040E80FF91F6083EE85FF8516
:100B8000E05CFF4F31832083EE89FF89208181E083
:100B900090E00F8C02C0880F991F0A94E2F7282B6F
:100BA000208381E089A3EC89FD8980818064808332
:100BB00081E090E0DF91CF9108951092A70110920B
:100BC000A60188EE93E0A0E0B0E08093A8019093A6
:100BD000A901A093AA01B093AB0185E091E09093A5
:100BE000A5018093A4018CE191E09093B1018093E1
:100BF000B00180E691E09093B3018093B20185EC5F
:100C000090E09093B5018093B40184EC90E09093D0
:100C1000B7018093B60180EC90E09093B901809386
:100C2000B80181EC90E09093BB018093BA0182EC13
:100C300090E09093BD018093BC0186EC90E090938E
:100C4000BF018093BE0184E08093C00183E0809364
:100C5000C10187E08093C20185E08093C30181E0F8
:100C60008093C4010895CF93DF930E947F020E9476
:100C70002D01CEE5D4E00E94BB012097E1F30E9454
:100C80005E04F9CFCF92DF92EF92FF920F931F9302
:100C9000CF93DF937C016B018A01C0E0D0E00FC0ED
:100CA000D6016D916D01D701ED91FC910190F0811C
:100CB000E02DC7010995C80FD91F0150104001153B
:100CC000110571F7CE01DF91CF911F910F91FF9028
:100CD000EF90DF90CF900895A1E21A2EAA1BBB1BC4
:100CE000FD010DC0AA1FBB1FEE1FFF1FA217B307F8
:100CF000E407F50720F0A21BB30BE40BF50B661F0E
:100D0000771F881F991F1A9469F7609570958095D1
:100D100090959B01AC01BD01CF010895EE0FFF1F1F
:0C0D20000590F491E02D0994F894FFCFA9
:100D2C0001000000009D0542063305640544058D55
:020D3C000500B0
:00000001FF
